:100000008231302A303430347E14803120007F0831
:10001000F5002100131C13282000131C13281310B3
:100020009016280013102100111C23282000111CF9
:10003000232811109012FF3028009200D830910030
:100040001314200018102000141B141FD02914139F
:10005000760377040319C329D0297B309700A4299C
:100060007C30A8297D3097008830B2297F309700F6
:100070001830B22980305A2981305E2983306629B0
:1000800083309700C830B2295D28853097005830FA
:10009000B2297A08D03E031CD02984000A30040219
:1000A0000318D02987310435EC3E8200D0298630F0
:1000B0006E2986309700E830B2298730722988305F
:1000C000762989307A298A3097000830B2298A3017
:1000D0008C298B3097009830B2298C3090298D3044
:1000E00097002830B2297A08D03E031CD02984001A
:1000F0000A3004020318D02988310435003E8200FA
:10010000D0298D3094298E309700B830B2298F30A5
:100110009829903097004830B22991309C2991302D
:100120009700D830B2299230A029933097006830D8
:10013000B2299430A42994309700F830B2297A0873
:10014000D03E031CD02984000A3004020318D029B1
:1001500088310435143E8200D0299530A829973083
:10016000AC299830B0299A305E299C3066299D30A0
:100170006A299F306E29A0307229A2307A29A330D3
:100180008C297A08D03E031CD02984000A3004024E
:100190000318D02988310435283E8200D029A530A3
:1001A0009029A6309429A8309829AA309C29AB30F0
:1001B000A029AD30A429AE30A829B030AC29B13087
:1001C000B029B3305E297A08D03E031CD0298400C0
:1001D0000A3004020318D029883104353C3E8200DD
:1001E000D029B5306629B6306A29B8306E29B930C1
:1001F0007229BB307A29BC308C29BE309029BF309F
:100200009429C1309829C3309C297A08D03E031C18
:10021000D02984000A3004020318D029883104351B
:10022000503E8200D029C430A029C630A429C7304E
:10023000A829C930AC29CA30B029CC305E29CE30CB
:100240006629CF306A29D1306E29D23072297A08D6
:10025000D03E031CD02984000A3004020318D029A0
:1002600088310435643E8200D029D4307A29D530D3
:100270008C29D7309029D8309429DA309829DC306D
:100280009C29DD30A029DF30A429E030A829E23004
:10029000AC297A08D03E031CD02984000A3004021D
:1002A0000318D02988310435783E8200D029E33004
:1002B000B029E4309700A830B229E53097007030BB
:1002C000B229E63097003830B229E730970096011E
:1002D000B329E83097009030B229EA3097002030F7
:1002E000B229EB309700B030B229EC30970078306B
:1002F000B229ED3097004030B2297A08D03E031C75
:10030000D02984000A3004020318D029883104352A
:100310008C3E8200D029EE309700D030B229F030E8
:1003200097006030B229F1309700F030B229F330F5
:1003300097008030B229F53097001030B229F6309E
:100340009700A030B229F83097003030B229F93048
:100350009700C030B229FB3097005030B229FC30F2
:100360009700E03096001814D0297A08D03E031C7C
:10037000D02984000A3004020318D02988310435BA
:10038000A03E8200D0297B08D03E031CD0298400E7
:100390000A3004020318D02988310435B43E8200A3
:1003A000911E2B2A23009D1CEC291D121D16453081
:1003B000F40074082000DB005230F4007408DC0004
:1003C0004F30F4007408DD005630F4007408DE008D
:1003D0005B308F314C27803123001908F4007808F6
:1003E000A03E860087017408810025302100200688
:1003F000031D122A0130F8070030F93D7908803AD0
:10040000F40080307402031D072A10307802031CA8
:100410002B2A01302000EA000030EB00F801F9013E
:1004200091122B2A23001D121D16F801F9014530E7
:10043000F40074082000DB005230F4007408DC0083
:100440005230F4007408DD005830F4007408DE0007
:100450005B308F314C2775082000FF007E100900AB
:100460008231322A803102208231FA008031032029
:100470008231FB000E3084008F3085004D308600C5
:100480000030870013308E31C426823185308400DD
:1004900087308500A03086000030870038308E31EC
:1004A000C4268231D63084008F308500203086000B
:1004B000013087002A308E31C426F601F701F80199
:1004C000F901EA01EB017E1020008231672A013038
:1004D0002000E8000030E9000130E6000030E700CD
:1004E0000130E4000030E5000130E2000030E300BC
:1004F0000130E0000030E1008F31652782318E311C
:10050000F326823120006A036B04031D082BEA01E5
:10051000EB01253021002006031DC72A25302106C6
:10052000031DC72A40302E06031DC72A40302F0660
:10053000031DC72A8731BD278231210041082000D1
:10054000C3004308AE00210042082000C400440854
:10055000AF00210043082000C5004508B00021007D
:1005600044082000C6004608B100210045082000CC
:10057000C7004708B200210046082000C80048080C
:10058000B30021004008863138268231082B4530DF
:100590002000C3004308DB005230C3004308DC00E6
:1005A0004C30C3004308DD005330C3004308DE0075
:1005B0005B308F319B27823123009D131D12200059
:1005C000C901CA014A08803AC30080304302031DB2
:1005D000EB2A0F3049020318052B23302000C300FB
:1005E0004908A03E86008701430881000130C90701
:1005F0000030CA3D4A08803AC30080304302031DE0
:10060000032B0F304902031CED2A23001D169D17F2
:1006100001302000CB000030CC0030304E06031DEE
:100620005F2B25008C1B5F2B200068086904031DCD
:100630005F2B4B034C04031D582B1A302000C300C2
:10064000F830890B212BC30B212B000052302300E3
:100650009A0006302000C3003030890B2D2BC30BCD
:100660002D2B0000303023009A0006302000C300FC
:100670003030890B392BC30B392B0000303023006D
:100680009A0006302000C3003030890B452BC30B85
:10069000452B0000313023009A0006302000C300B3
:1006A0003030890B512BC30B512B000025008C10CF
:1006B0002000CB01CC010130E8000030E9003030EF
:1006C00020004E06031DB02B25008C1FB02B2000F0
:1006D00068036904031DB02B4B034C04031DAB2BB3
:1006E0001A302000C300F830890B742BC30B742B15
:1006F0000000523023009A0006302000C300303042
:10070000890B802BC30B802B0000313023009A0013
:1007100006302000C3003030890B8C2BC30B8C2B90
:100720000000303023009A0006302000C300303033
:10073000890B982BC30B982B0000313023009A00B3
:1007400006302000C3003030890BA42BC30BA42B30
:10075000000025008C142000CB01CC01E801E90148
:10076000303020004F06031D032C25008C1A032C6B
:10077000200066086704031D032C4B034C04031D73
:10078000FC2B1A302000C300F830890BC52BC30B9B
:10079000C52B0000523023009A0006302000C30011
:1007A0003030890BD12BC30BD12B0000303023000C
:1007B0009A0006302000C3003030890BDD2BC30BBC
:1007C000DD2B0000303023009A0006302000C300EB
:1007D0003030890BE92BC30BE92B000032302300AA
:1007E0009A0006302000C3003030890BF52BC30B74
:1007F000F52B000025000C102000CB01CC010130AE
:10080000E6000030E700303020004F06031D542C76
:1008100025008C1E542C200066036704031D542CF5
:100820004B034C04031D4F2C1A302000C300F8303A
:10083000890B182CC30B182C0000523023009A008F
:1008400006302000C3003030890B242CC30B242C2D
:100850000000313023009A0006302000C300303001
:10086000890B302CC30B302C0000303023009A0051
:1008700006302000C3003030890B3C2CC30B3C2CCD
:100880000000323023009A0006302000C3003030D0
:10089000890B482CC30B482C000025000C142000A9
:1008A000CB01CC01E601E701303020005006031DEA
:1008B000A62C25008C19A62C200064086504031DB5
:1008C000A62C4B034C04031DA02C1A302000C3009F
:1008D000F830890B692CC30B692C000052302300BF
:1008E0009A0006302000C3003030890B752CC30BF2
:1008F000752C0000303023009A0006302000C30021
:100900003030890B812CC30B812C00003030230048
:100910009A0006302000C3003030890B8D2CC30BA9
:100920008D2C0000333023009A0006302000C300D5
:100930003030890B992CC30B992C000020008C11AE
:10094000CB01CC010130E4000030E5003030200064
:100950005006031DF62C25008C1DF62C2000640388
:100960006504031DF62C4B034C04031DF22C1A30B6
:100970002000C300F830890BBB2CC30BBB2C00003C
:10098000523023009A0006302000C3003030890B1B
:10099000C72CC30BC72C0000313023009A0006304F
:1009A0002000C3003030890BD32CC30BD32C0000A4
:1009B000303023009A0006302000C3003030890B0D
:1009C000DF2CC30BDF2C0000333023009A000630ED
:1009D0002000C3003030890BEB2CC30BEB2C000044
:1009E00020008C15CB01CC01E401E5013030200062
:1009F0005106031D482D25000C19482D20006208C2
:100A00006304031D482D4B034C04031D422D1A3073
:100A10002000C300F830890B0B2DC30B0B2D0000F9
:100A2000523023009A0006302000C3003030890B7A
:100A3000172DC30B172D0000303023009A0006300D
:100A40002000C3003030890B232DC30B232D000061
:100A5000303023009A0006302000C3003030890B6C
:100A60002F2DC30B2F2D0000343023009A000630A9
:100A70002000C3003030890B3B2DC30B3B2D000001
:100A800020000C11CB01CC010130E2000030E3006A
:100A9000303020005106031D982D25000C1D982D87
:100AA000200062036304031D982D4B034C04031DB7
:100AB000942D1A302000C300F830890B5D2DC30B34
:100AC0005D2D0000523023009A0006302000C30044
:100AD0003030890B692DC30B692D000031302300A4
:100AE0009A0006302000C3003030890B752DC30BEF
:100AF000752D0000303023009A0006302000C3001E
:100B00003030890B812DC30B812D00003430230040
:100B10009A0006302000C3003030890B8D2DC30BA6
:100B20008D2D000020000C15CB01CC01E201E3016A
:100B300030302000520603198C1AE92D6008610438
:100B4000031DE92D4B034C04031DE32DF601F701B2
:100B50001A302000C300F830890BAC2DC30BAC2D2C
:100B60000000523023009A0006302000C3003030CD
:100B7000890BB82DC30BB82D0000303023009A002C
:100B800006302000C3003030890BC42DC30BC42DA8
:100B90000000303023009A0006302000C3003030BF
:100BA000890BD02DC30BD02D0000353023009A00C7
:100BB00006302000C3003030890BDC2DC30BDC2D48
:100BC000000020009016CB01CC010130E000003085
:100BD000E1003030520603198C1E822A6003610442
:100BE000031D822A4B034C04031D332EF601F7012B
:100BF0001A302000C300F830890BFC2DC30BFC2DEC
:100C00000000523023009A0006302000C30030302C
:100C1000890B082EC30B082E0000313023009A00E8
:100C200006302000C3003030890B142EC30B142E65
:100C30000000303023009A0006302000C30030301E
:100C4000890B202EC30B202E0000353023009A0084
:100C500006302000C3003030890B2C2EC30B2C2E05
:100C6000000020009012CB01CC01E001E101822ABA
:100C70002000B800BD01BE01BF01C001B601B7012F
:100C8000C101C2015A08BA005908B9005808BC008D
:100C90005708BB003808B4003408B9002E08B40067
:100CA0003408BA00393087311A27863120002708E6
:100CB000BE002608BD002F08D03EBF00FF3003183D
:100CC0000030C0003008B4003408BB003108B40064
:100CD0003408BC003B3087311A27863120002708B2
:100CE000B7002608B6003208B4003D084D3E860025
:100CF0008701340881003E08B5003D08B400B435D2
:100D0000B50DB435B50D3408FC3EC100FF30353D9E
:100D1000C2004730B4004108203E86000130870001
:100D2000340881000130C1070030C23D2F08B400F3
:100D30004108203E860001308700340881000130E0
:100D4000C1070030C23D3808B4004108203E86008B
:100D500001308700340881000130C1070030C23DF6
:100D60002E08B4004108203E860001308700340878
:100D70008100FD30C107FF30C23D31303306031D15
:100D8000022F4108203E8F31B8278631022F2000E4
:100D90003F0C2500031C8C1003188C140800200045
:100DA0003F0C2500031C0C1003180C140800200035
:100DB0003F0C031C8C1103188C1508003F0C031CFE
:100DC0000C1103180C1508004008F7003F08F60046
:100DD000F42E901608003008B4003408FB003108E7
:100DE000B4003408FA0008004008003A0319F92E4C
:100DF000192F3F08003A0319E92E013A0319EB2E87
:100E0000192F080020003E08003A0319082F192F57
:100E10003D08013A0319C72E033A0319CF2E013AB0
:100E20000319D72E073A0319DE2E013A0319E42ECF
:100E3000192F08002000AD002D0886008701203002
:100E40000106031D282F0130A8002808AD071C2F1C
:100E50002D0886008701093001060319232FAB01F5
:100E6000AC01AA012D08860087012D300106031D63
:100E70003E2F0130A8002808AA07452F2D0886001C
:100E800087012B300106031D492F0130A8002808D7
:100E9000AD072D088600870101088E31FF268731B6
:100EA000031C702F20002C08A1002B08A0000A3082
:100EB000A2000030A3008F317F27873120002D084A
:100EC0008600870101082007A80021080318210ACD
:100ED000A9002808D03EAB00FF30293DAC00452FCB
:100EE00020002A080319802F2B09A8002C09A9002B
:100EF000A80A0319A90A2808A6002908A7000800BB
:100F00002C08A7002B08A600080023340034003466
:100F10000034003400340034003400340034003431
:100F20000034003400340034003400340034003421
:100F30000034003400340034003400340034003411
:100F400000340034003400340034233400340034DE
:100F500000340034003400340034003400340034F1
:100F600000340034003400340034003400340034E1
:100F70000034003400340034003402302000A1007A
:100F80000030A2000230A1000030A2002208803A06
:100F9000A00080302002031DCF2F0930210203184A
:100FA000080020002108A03E860087010108A0005B
:100FB0002108FE3EC03E86008701200881002330C4
:100FC000A0002108A03E8600870120088100013092
:100FD000A1070030A23DC62F80312D288031302856
:100FE000803132288031362880313A2880313C28BF
:100FF00080313E2880314028803144288031452886
:10100000803157288031592880315D2880315F2810
:1010100080316128803163288031672880316928D8
:1010200080316D2880316F2880318128803183287C
:10103000803187288031892880318D2880318F2820
:1010400080319328803195288031992880319B28E0
:101050008031AD288031AF288031B1288031B3286C
:101060008031B5288031B7288031B9288031BB283C
:101070008031BD288031BF288031CF288031D128F0
:101080008031D3288031D5288031D7288031D928A4
:101090008031DB288031DD288031DF288031E12874
:1010A0008031F1288031F3288031F5288031F7280C
:1010B0008031F9288031FB288031FD288031FF28DC
:1010C0008131012981310329813113298131152988
:1010D000813117298131192981311B2981311D293C
:1010E00081311F298131212981312329813125290C
:1010F00081313529813137298131392981313B29A4
:1011000081313D2981313F29813141298131432973
:101110008131452981314729813157298131592927
:1011200081315D29813161298131652981316929C7
:1011300081316D2981317129813175298131792977
:1011400081318B2981318F298131932981319729EF
:1011500081319B2981319F298131A3298131A7299F
:101160008131AB298131AF29803149288031732801
:1011700080319F288031C1288031E32881310529C1
:10118000813127298131492981317D298131B52951
:101D8800FE0012001E00FE0BC52E003425008C102C
:101D98000C1020008C110C119016080084302C00B7
:101DA8009C009B019A0120001413210014170800BD
:101DB8002000980199019701960111102100111432
:101DC8008B170B17080028009301940192019101C9
:101DD80020001310210013148B170B1708008F31E4
:101DE80036278E318E31DC268E318E31E7268E31C4
:101DF8008E31D22608002000A100A0013A3021022D
:101E080003180C2F30302102031C0C2FA001A00A4C
:101E1800200C08003034303430343034303430342E
:101E28003034303430340034233400342334003434
:101E38002334233423342334003428008D0129002B
:101E48008D0128008C0123009001240090012300BB
:101E58008F0124008F0123008D0124008D012300B0
:101E68008C0108002100911211120A3023009F00F2
:101E780090309D0024309E00A0309B0001309C00D3
:101E88008B170B172100911623009E169D1708002B
:101E9800F300F101F201043071067204031908001D
:101EA80023009E1C542F73088600870101089A009E
:101EB8000130F0007008F3070130F1070030F23DFF
:101EC8004F2F8E31CA268F318F3121278F3126002F
:101ED8008C178C168C150C1521008C1626000C10EE
:101EE8008C1021008C110C11901290150E138E1766
:101EF8008E31CA2608002000A401A501201C882FC5
:101F08002208A4072308A53D0130A235A30D890B9B
:101F1800892F0130A136A00C890B8E2F20082104AF
:101F2800031D822F2508A1002408A0000800200016
:101F3800A300A101A201043021062204031908000C
:101F480023009E1CA42F2000230886008701010877
:101F580023009A0001302000A0002008A3070130C8
:101F6800A1070030A23D9F2F2000A300A101A201DC
:101F78000430210622040319080023009E1CC12FE7
:101F880020002308860001308700010823009A00FA
:101F980001302000A0002008A3070130A10700306D
:101FA800A23DBC2F23340034003400340034003404
:101FB8000034003400340034003400340034003479
:101FC8000034003400340034003400340034003469
:101FD8000034003400340034003400340034003459
:101FE8000034003400340034003400340034003449
:081FF800003400340034003411
:020000040001F9
:04000E00A2C9FFDDA7
:00000001FF
